{
  "transactions": [
    {
      "hash": "0x33a1780f066c97e8876afcd15fc65a32fc142f0b21ffe86d86f256f2410fbf18",
      "transactionType": "CALL",
      "contractName": null,
      "contractAddress": "0x077D04dd19Ba7bF13314059e5F4EF90FE0F848B3",
      "function": "lzSend(bytes,bytes,uint256,address)",
      "arguments": [
        "0x59496219000000000000000000000000ba9b66b8334eeb46b3b4483d94e9d3eaf2c8a4bf00000000000000000000000000000000000000000000000000470de4df820000000000000000000000000000000000000000000000000000000000000000006000000000000000000000000000000000000000000000000000000000000000067a6f646f6d6f0000000000000000000000000000000000000000000000000000",
        "0x00030100210100000000000000000000e35fa931a000000000000000000000470de4df820000",
        "48213942459659612",
        "0x1804c8AB1F12E6bbf3894d4083f33e07309d1f38"
      ],
      "transaction": {
        "type": "0x02",
        "from": "0xba9b66b8334eeb46b3b4483d94e9d3eaf2c8a4bf",
        "to": "0x077d04dd19ba7bf13314059e5f4ef90fe0f848b3",
        "gas": "0x5ed7f",
        "value": "0xab4a534187755c",
        "data": "0x80cdede70000000000000000000000000000000000000000000000000000000000000080000000000000000000000000000000000000000000000000000000000000016000000000000000000000000000000000000000000000000000ab4a534187755c0000000000000000000000001804c8ab1f12e6bbf3894d4083f33e07309d1f3800000000000000000000000000000000000000000000000000000000000000a459496219000000000000000000000000ba9b66b8334eeb46b3b4483d94e9d3eaf2c8a4bf00000000000000000000000000000000000000000000000000470de4df820000000000000000000000000000000000000000000000000000000000000000006000000000000000000000000000000000000000000000000000000000000000067a6f646f6d6f000000000000000000000000000000000000000000000000000000000000000000000000000000000000000000000000000000000000000000000000000000000000000000000000000000000000000000000000002600030100210100000000000000000000e35fa931a000000000000000000000470de4df8200000000000000000000000000000000000000000000000000000000",
        "nonce": "0xa",
        "accessList": []
      },
      "additionalContracts": [],
      "isFixedGasLimit": false
    }
  ],
  "receipts": [
    {
      "transactionHash": "0x33a1780f066c97e8876afcd15fc65a32fc142f0b21ffe86d86f256f2410fbf18",
      "transactionIndex": "0x4",
      "blockHash": "0x7d7320b8eca21b92535ff41736b607d4b526055bdef8b0b10794dffca7b9c222",
      "blockNumber": "0x4b5a46",
      "from": "0xbA9B66B8334eEb46b3b4483d94E9d3EaF2C8a4bf",
      "to": "0x077D04dd19Ba7bF13314059e5F4EF90FE0F848B3",
      "cumulativeGasUsed": "0x1ee335",
      "gasUsed": "0x40d9b",
      "contractAddress": null,
      "logs": [
        {
          "address": "0xD1bbdB62826eDdE4934Ff3A4920eB053ac9D5569",
          "topics": [
            "0x61ed099e74a97a1d7f8bb0952a88ca8b7b8ebd00c126ea04671f92a81213318a"
          ],
          "data": "0x000000000000000000000000ae9bbf877bf1bd41edd5dfc3473d263171cf3b9e00000000000000000000000000000000000000000000000000ab102b7e6e994b",
          "blockHash": "0x7d7320b8eca21b92535ff41736b607d4b526055bdef8b0b10794dffca7b9c222",
          "blockNumber": "0x4b5a46",
          "transactionHash": "0x33a1780f066c97e8876afcd15fc65a32fc142f0b21ffe86d86f256f2410fbf18",
          "transactionIndex": "0x4",
          "logIndex": "0x18",
          "removed": false
        },
        {
          "address": "0xD1bbdB62826eDdE4934Ff3A4920eB053ac9D5569",
          "topics": [
            "0x07ea52d82345d6e838192107d8fd7123d9c2ec8e916cd0aad13fd2b60db24644"
          ],
          "data": "0x000000000000000000000000000000000000000000000000000000000000006000000000000000000000000000000000000000000000000000000000000000a000000000000000000000000000000000000000000000000000000000000000c0000000000000000000000000000000000000000000000000000000000000000100000000000000000000000073b2dcb13a27e893c249d8240e9179f2c5fecf7e0000000000000000000000000000000000000000000000000000000000000000000000000000000000000000000000000000000000000000000000000000000100000000000000000000000000000000000000000000000000003a27c318dc11",
          "blockHash": "0x7d7320b8eca21b92535ff41736b607d4b526055bdef8b0b10794dffca7b9c222",
          "blockNumber": "0x4b5a46",
          "transactionHash": "0x33a1780f066c97e8876afcd15fc65a32fc142f0b21ffe86d86f256f2410fbf18",
          "transactionIndex": "0x4",
          "logIndex": "0x19",
          "removed": false
        },
        {
          "address": "0x464570adA09869d8741132183721B4f0769a0287",
          "topics": [
            "0x1ab700d4ced0c005b164c0f789fd09fcbb0156d4c2041b8a3bfbcd961cd1567f"
          ],
          "data": "0x000000000000000000000000000000000000000000000000000000000000006000000000000000000000000000000000000000000000000000000000000001a0000000000000000000000000d1bbdb62826edde4934ff3a4920eb053ac9d5569000000000000000000000000000000000000000000000000000000000000011501000000000000000100009ce1000000000000000000000000077d04dd19ba7bf13314059e5f4ef90fe0f848b300009cb9000000000000000000000000d537cbd6f4205924fba7e1002355751424255da2c5ea36455e0b65e38b646d93605fe2a61b2cfcf909d340c2bf5f97f85f31b4b559496219000000000000000000000000ba9b66b8334eeb46b3b4483d94e9d3eaf2c8a4bf00000000000000000000000000000000000000000000000000470de4df820000000000000000000000000000000000000000000000000000000000000000006000000000000000000000000000000000000000000000000000000000000000067a6f646f6d6f00000000000000000000000000000000000000000000000000000000000000000000000000000000000000000000000000000000000000000000000000000000000000002600030100210100000000000000000000e35fa931a000000000000000000000470de4df8200000000000000000000000000000000000000000000000000000000",
          "blockHash": "0x7d7320b8eca21b92535ff41736b607d4b526055bdef8b0b10794dffca7b9c222",
          "blockNumber": "0x4b5a46",
          "transactionHash": "0x33a1780f066c97e8876afcd15fc65a32fc142f0b21ffe86d86f256f2410fbf18",
          "transactionIndex": "0x4",
          "logIndex": "0x1a",
          "removed": false
        }
      ],
      "status": "0x1",
      "logsBloom": "0x00000000000000000000000000000000000000000000000000000100000000000000000000000000000000000000000000000000000000000002000000000000000000000008000000000000000000000000008000000000000000000000000000000000000000008000000000000000000000000000000000000000000000000000000000000000000000080000000000000000000000000000000000000800000000008000000000100000000000000000000000400000000440000000000000000000000000000000000000000000000000000000000000000000000000000000040000000000000000200000002000000000000000000000000000000000",
      "type": "0x2",
      "effectiveGasPrice": "0xd5ca8ed4"
    }
  ],
  "libraries": [],
  "pending": [],
  "returns": {},
  "timestamp": 1703272550,
  "chain": 11155111,
  "multi": false,
  "commit": "96396ae"
}