{
  "transactions": [
    {
      "hash": "0x33a1780f066c97e8876afcd15fc65a32fc142f0b21ffe86d86f256f2410fbf18",
      "transactionType": "CALL",
      "contractName": null,
      "contractAddress": "0x077D04dd19Ba7bF13314059e5F4EF90FE0F848B3",
      "function": "lzSend(bytes,bytes,uint256,address)",
      "arguments": [
        "0x59496219000000000000000000000000ba9b66b8334eeb46b3b4483d94e9d3eaf2c8a4bf00000000000000000000000000000000000000000000000000470de4df820000000000000000000000000000000000000000000000000000000000000000006000000000000000000000000000000000000000000000000000000000000000067a6f646f6d6f0000000000000000000000000000000000000000000000000000",
        "0x00030100210100000000000000000000e35fa931a000000000000000000000470de4df820000",
        "48213942459659612",
        "0x1804c8AB1F12E6bbf3894d4083f33e07309d1f38"
      ],
      "transaction": {
        "type": "0x02",
        "from": "0xba9b66b8334eeb46b3b4483d94e9d3eaf2c8a4bf",
        "to": "0x077d04dd19ba7bf13314059e5f4ef90fe0f848b3",
        "gas": "0x5ed7f",
        "value": "0xab4a534187755c",
        "data": "0x80cdede70000000000000000000000000000000000000000000000000000000000000080000000000000000000000000000000000000000000000000000000000000016000000000000000000000000000000000000000000000000000ab4a534187755c0000000000000000000000001804c8ab1f12e6bbf3894d4083f33e07309d1f3800000000000000000000000000000000000000000000000000000000000000a459496219000000000000000000000000ba9b66b8334eeb46b3b4483d94e9d3eaf2c8a4bf00000000000000000000000000000000000000000000000000470de4df820000000000000000000000000000000000000000000000000000000000000000006000000000000000000000000000000000000000000000000000000000000000067a6f646f6d6f000000000000000000000000000000000000000000000000000000000000000000000000000000000000000000000000000000000000000000000000000000000000000000000000000000000000000000000000002600030100210100000000000000000000e35fa931a000000000000000000000470de4df8200000000000000000000000000000000000000000000000000000000",
        "nonce": "0xa",
        "accessList": []
      },
      "additionalContracts": [],
      "isFixedGasLimit": false
    }
  ],
  "receipts": [],
  "libraries": [],
  "pending": [
    "0x33a1780f066c97e8876afcd15fc65a32fc142f0b21ffe86d86f256f2410fbf18"
  ],
  "returns": {},
  "timestamp": 1703272543,
  "chain": 11155111,
  "multi": false,
  "commit": "96396ae"
}